:100000000C942A000C943F000C943F000C943F0089
:100010000C943F000C943F000C943F000C943F0064
:100020000C943F000C943F000C943F000C943F0054
:100030000C943F000C943F000C943F000C943F0044
:100040000C943F000C943F000C943F000C943F0034
:100050000C943F0011241FBECFE5D8E0DEBFCDBF1A
:1000600011E0A0E6B0E0EAE3FFE202C005900D92E5
:10007000A836B107D9F70E9488160C949B170C94E8
:100080000000EF92FF920F931F937B018C0120E001
:1000900030E040E05FE40E94ED0388238CF0C8016B
:1000A000B70120E030E040E05FE40E94B9010E9427
:1000B0004D049B01AC01205030404040504806C0E8
:1000C000C801B7010E944D049B01AC01B901CA01EE
:1000D0001F910F91FF90EF900895A0E0B0E0E3E74B
:1000E000F0E00C94E816DC012B01FA019C919230AF
:1000F00008F439C1EB018881823008F433C19430AF
:1001000069F4843009F02FC111969C91119789816F
:10011000981709F428C1A0E6B0E025C1843009F49D
:1001200021C18230A9F4923009F01DC19A01AD01BC
:1001300088E0EA010990AE01E90109929E0181502F
:10014000C1F7E201898111969C918923818308C1BD
:10015000923009F407C112962D903C901397EB0151
:100160008A819B811496AD90BD90CD90DC901797BD
:10017000EC80FD800E811F819101281B390BB90194
:1001800037FF04C066277727621B730B6032710547
:100190000CF061C0121613066CF537014801062EEB
:1001A00004C096948794779467940A94D2F721E0D8
:1001B00030E040E050E004C0220F331F441F551FC1
:1001C0006A95D2F721503040404050402E213F21C7
:1001D00040235123211531054105510521F021E02E
:1001E00030E040E050E079018A01E628F72808294C
:1001F00019293CC0232BD1F1260E371E35014601AB
:10020000062E04C096948794779467940A94D2F744
:1002100021E030E040E050E004C0220F331F441FD3
:10022000551F6A95D2F721503040404050402A2156
:100230003B214C215D21211531054105510521F05E
:1002400021E030E040E050E059016A01A628B728DB
:10025000C828D9280BC0821593052CF01C01AA24AC
:10026000BB24650103C0EE24FF24870111969C91F5
:10027000D20111968C91981709F445C0992339F051
:10028000A80197012A193B094C095D0906C0A6017E
:1002900095012E193F09400B510B57FD08C01182E3
:1002A0003382228224833583468357831DC081E0B5
:1002B00081833382228288279927DC01821B930B5A
:1002C000A40BB50B84839583A683B7830DC0220F3F
:1002D000331F441F551F24833583468357838281F0
:1002E000938101979383828324813581468157814D
:1002F000DA01C9010197A109B1098F5F9F4FAF4F83
:10030000BF4328F30BC0918333822282EA0CFB1C8B
:100310000C1D1D1DE482F5820683178383E0808314
:10032000248135814681578157FF1AC0C901AA2708
:1003300097FDA095BA2F81709070A070B0705695FF
:10034000479537952795822B932BA42BB52B848328
:100350009583A683B7838281938101969383828359
:10036000DF0101C0D201CD01CDB7DEB7E2E10C94CF
:100370000417A0E2B0E0EFEBF1E00C94F41669830F
:100380007A838B839C832D833E834F835887E9E058
:10039000EE2EF12CEC0EFD1ECE010196B7010E944F
:1003A0003E068E010F5E1F4FCE010596B8010E94DA
:1003B0003E068A8991E089278A8BC701B801AE0180
:1003C000475E5F4F0E946D000E946905A096E6E0BF
:1003D0000C941017A0E2B0E0E0EFF1E00C94F416FA
:1003E00069837A838B839C832D833E834F835887D5
:1003F000F9E0EF2EF12CEC0EFD1ECE010196B701B7
:100400000E943E068E010F5E1F4FCE010596B80179
:100410000E943E06C701B801AE01475E5F4F0E94D1
:100420006D000E946905A096E6E00C941017A0E20A
:10043000B0E0EDE1F2E00C94E81669837A838B83F7
:100440009C832D833E834F835887CE010196BE0146
:10045000675F7F4F0E943E06CE010596BE016F5E2C
:100460007F4F0E943E069985923088F089898230BC
:10047000C8F0943019F4823051F404C0843029F467
:10048000923081F480E690E0C6C0923049F420E0DA
:100490009A858A89981321E02A87CE010996BBC0E4
:1004A000823049F420E09A858A89981321E02A8BCA
:1004B000CE014196B0C02D843E844F8458886D880B
:1004C0007E888F88988CEE24FF248701AA24BB2481
:1004D000650140E050E060E070E0E0E0F0E0C10184
:1004E00081709070892BE9F0E60CF71C081D191D2E
:1004F0009A01AB012A0D3B1D4C1D5D1D80E090E073
:10050000A0E0B0E0E614F7040805190520F481E046
:1005100090E0A0E0B0E0BA01A901480F591F6A1F9E
:100520007B1FAA0CBB1CCC1CDD1C97FE08C081E005
:1005300090E0A0E0B0E0A82AB92ACA2ADB2A3196C6
:10054000E032F10549F0660C771C881C991C569422
:10055000479437942794C3CFFA85EA892B893C893D
:100560008B859C85280F391F2E5F3F4F17C0CA010E
:1005700081709070892B61F016950795F794E79438
:1005800080E090E0A0E0B0E8E82AF92A0A2B1B2BD3
:1005900076956795579547952F5F3F4F77FDE7CF46
:1005A0000CC0440F551F661F771F17FD4160EE0CEE
:1005B000FF1C001F111F21503040403090E05907B0
:1005C00090E0690790E4790760F32B8F3C8FDB01A3
:1005D000CA018F779070A070B07080349105A1052A
:1005E000B10561F447FD0AC0E114F10401051105EC
:1005F00029F0405C5F4F6F4F7F4F40781A8EFE1797
:1006000011F081E08A8F4D8F5E8F6F8F78A383E02A
:10061000898FCE0149960E946905A096E2E10C946B
:100620000417A8E1B0E0E7E1F3E00C94F016698369
:100630007A838B839C832D833E834F835887B9E0D5
:10064000EB2EF12CEC0EFD1ECE010196B7010E949F
:100650003E068E010F5E1F4FCE010596B8010E9427
:100660003E062985223008F47EC03989323010F4E4
:10067000B8017CC08A859A8989278A87243011F03D
:10068000223031F4231709F06EC060E670E06EC0CE
:10069000343039F41D861E861F86188A1C861B86F8
:1006A00004C0323021F484E08987B7015FC02B8514
:1006B0003C858B899C89281B390B3C872B87ED84D3
:1006C000FE840F851889AD88BE88CF88D88CEA143F
:1006D000FB040C051D0540F4EE0CFF1C001F111F50
:1006E000215030403C872B8720E030E040E050E054
:1006F00080E090E0A0E0B0E460E070E0EA14FB0489
:100700000C051D0540F0282B392B4A2B5B2BEA18D2
:10071000FB080C091D09B695A79597958795EE0CD2
:10072000FF1C001F111F6F5F7F4F6F31710531F785
:10073000DA01C9018F779070A070B0708034910594
:10074000A105B10561F427FD0AC0E114F10401051A
:10075000110529F0205C3F4F4F4F5F4F20782D87C8
:100760003E874F87588BBE01675F7F4FCB010E944A
:1007700069056896EAE00C940C17A8E1B0E0E3EC98
:10078000F3E00C94F41669837A838B839C832D8326
:100790003E834F83588789E0E82EF12CEC0EFD1E36
:1007A000CE010196B7010E943E068E010F5E1F4FDB
:1007B000CE010596B8010E943E068985823040F040
:1007C0008989823028F0C701B8010E94B60601C0AD
:1007D0008FEF6896E6E00C941017A8E1B0E0E3EF25
:1007E000F3E00C94F41669837A838B839C832D83C6
:1007F0003E834F83588789E0E82EF12CEC0EFD1ED6
:10080000CE010196B7010E943E068E010F5E1F4F7A
:10081000CE010596B8010E943E068985823040F0DF
:100820008989823028F0C701B8010E94B60601C04C
:100830008FEF6896E6E00C941017A8E1B0E0E3E2D1
:10084000F4E00C94F41669837A838B839C832D8364
:100850003E834F83588789E0E82EF12CEC0EFD1E75
:10086000CE010196B7010E943E068E010F5E1F4F1A
:10087000CE010596B8010E943E068985823040F07F
:100880008989823028F0C701B8010E94B60601C0EC
:1008900081E06896E6E00C941017ACE0B0E0E3E588
:1008A000F4E00C94F81669837A838B839C83CE01E1
:1008B0000196BE016B5F7F4F0E943E068D818230A4
:1008C00061F1823050F1843021F48E81882351F11E
:1008D0002EC02F81388537FD20C06E812F31310524
:1008E0001CF06623F9F023C08EE190E0821B930B8D
:1008F00029853A854B855C8504C056954795379583
:1009000027958A95D2F76623B1F05095409530959A
:1009100021953F4F4F4F5F4F0EC020E030E040E049
:1009200050E009C02FEF3FEF4FEF5FE704C020E03A
:1009300030E040E050E8B901CA012C96E2E00C94A6
:100940001417A8E0B0E0E7EAF4E00C94F0167B019D
:100950008C01611571058105910519F482E0898387
:1009600060C083E089838EE1C82ED12CDC82CB82EB
:10097000ED82FE820F831887C801B7010E941A0515
:10098000FC013197F7FF3BC0222733272E1B3F0B7B
:1009900057016801022E04C0D694C794B794A79457
:1009A0000A94D2F740E050E060E070E081E090E02F
:1009B000A0E0B0E004C0880F991FAA1FBB1F2A95B2
:1009C000D2F70197A109B1098E219F21A023B1235C
:1009D0000097A105B10521F041E050E060E070E032
:1009E0004A295B296C297D294D835E836F83788733
:1009F0008EE190E08E1B9F0B9C838B8312C03097FF
:100A000081F00E2E04C0EE0CFF1C001F111F0A9473
:100A1000D2F7ED82FE820F831887CE1ADF0ADC82BE
:100A2000CB821A82CE0101960E9469052896EAE0DF
:100A30000C940C17EF92FF920F931F937B018C0184
:100A400080E0E81680E0F80681E0080780E01807FB
:100A500088F48FEFE816F1040105110531F028F054
:100A600088E090E0A0E0B0E017C080E090E0A0E077
:100A7000B0E012C080E0E81680E0F80680E00807E9
:100A800081E0180728F088E190E0A0E0B0E004C021
:100A900080E190E0A0E0B0E020E230E040E050E013
:100AA000281B390B4A0B5B0B04C016950795F7946E
:100AB000E7948A95D2F7F701E859FF4F8081281B08
:100AC000310941095109C9011F910F91FF90EF9020
:100AD0000895DF92EF92FF920F931F93FC01E48041
:100AE000F58006811781D1808081823048F480E0D2
:100AF00090E0A0E1B0E0E82AF92A0A2B1B2BA5C060
:100B0000843009F49FC0823021F4EE24FF24870151
:100B100005C0E114F1040105110519F4E0E0F0E06D
:100B200096C0628173819FEF623879070CF05BC0D9
:100B300022E83FEF261B370B2A3131052CF020E04D
:100B400030E040E050E02AC0B801A701022E04C006
:100B500076956795579547950A94D2F781E090E08E
:100B6000A0E0B0E004C0880F991FAA1FBB1F2A9500
:100B7000D2F70197A109B1098E219F21A023B123AA
:100B80000097A105B10521F081E090E0A0E0B0E080
:100B90009A01AB01282B392B4A2B5B2BDA01C901B7
:100BA0008F779070A070B07080349105A105B10569
:100BB00039F427FF09C0205C3F4F4F4F5F4F04C0FF
:100BC000215C3F4F4F4F5F4FE0E0F0E02030A0E06E
:100BD0003A07A0E04A07A0E45A0710F0E1E0F0E08D
:100BE00079018A0127C06038710564F5FB01E1587D
:100BF000FF4FD801C7018F779070A070B07080341C
:100C00009105A105B10539F4E7FE0DC080E490E03F
:100C1000A0E0B0E004C08FE390E0A0E0B0E0E80E18
:100C2000F91E0A1F1B1F17FF05C016950795F7949D
:100C3000E794319687E016950795F794E7948A959F
:100C4000D1F705C0EE24FF248701EFEFF0E06E2F0F
:100C5000679566276795902F9F77D794DD24D79463
:100C60008E2F8695492F462B582F5D29B701CA0133
:100C70001F910F91FF90EF90DF900895FC01DB0131
:100C8000408151812281622F6F7770E0221F2227DD
:100C9000221F9381892F880F822B282F30E0991FE4
:100CA0009927991F11969C93119721153105A9F544
:100CB000411551056105710511F482E037C082E8E4
:100CC0009FEF13969C938E9312979A01AB0167E066
:100CD000220F331F441F551F6A95D1F783E08C9371
:100CE0000DC0220F331F441F551F12968D919C91EA
:100CF0001397019713969C938E931297203080E060
:100D0000380780E0480780E4580758F314962D937D
:100D10003D934D935C93179708952F3F310579F4D8
:100D2000411551056105710519F484E08C9308950E
:100D300064FF03C081E08C9312C01C9210C02F5737
:100D4000304013963C932E93129783E08C9387E068
:100D5000440F551F661F771F8A95D1F7706414964C
:100D60004D935D936D937C93179708951F93DC01CA
:100D7000FB019C91923008F447C08081823008F4D6
:100D800043C0943051F411961C91843099F58181BF
:100D9000682F70E0611B71093FC0843021F09230F0
:100DA00031F48230B9F18181882389F12DC0119607
:100DB0001C9111978230F1F081811817D9F41296A5
:100DC0002D913C911397828193818217930794F020
:100DD00028173907BCF014968D919D910D90BC9108
:100DE000A02D2481358146815781281739074A076C
:100DF0005B0718F4112341F00AC082179307A40778
:100E0000B50740F4112319F061E070E005C06FEF01
:100E10007FEF02C060E070E0CB011F910895DF9387
:100E2000CF93CDB7DEB728970FB6F894DEBF0FBECD
:100E3000CDBF8C834D835E836F8378871A8219823E
:100E40008C81882321F58D819E81AF81B885880FA3
:100E5000991FAA1FBB1F880F991FAA1FBB1F880FAE
:100E6000991FAA1FBB1F880F991FAA1FBB1F9C0198
:100E7000AD0180E092E1AAE7B0E0BC01CD010E94A3
:100E8000C616DA01C90101979A8389833DC08C8116
:100E9000813001F58D819E81AF81B885880F991FC2
:100EA000AA1FBB1F880F991FAA1FBB1F880F991F5E
:100EB000AA1FBB1F9C01AD0180E092E1AAE7B0E050
:100EC000BC01CD010E94C616DA01C90101979A83BF
:100ED00089831AC08C818230B9F48D819E81AF8163
:100EE000B8859C01AD01220F331F441F551F80E0C0
:100EF00092E1AAE7B0E0BC01CD010E94C616DA017A
:100F0000C90101979A838983E0E4F0E089819A819D
:100F1000892F99278083E9E2F0E089818083AAE222
:100F2000B0E0EAE2F0E080818F778C93AAE2B0E053
:100F3000EAE2F0E080818F7B8C93AAE2B0E0EAE203
:100F4000F0E0808180618C93AAE2B0E0EAE2F0E018
:100F5000808188608C93AAE2B0E0EAE2F0E08081D0
:100F60008C938B8180688B838B818F7B8B838B8130
:100F7000877F8B838B8186608B83E0E4F0E08B81BD
:100F8000808328960FB6F894DEBF0FBECDBFCF91F9
:100F9000DF910895DF93CF9300D0CDB7DEB79A836A
:100FA0008983EBE2F0E080818295869587708823C3
:100FB000C1F3ECE2F0E0898180830F900F90CF9134
:100FC000DF910895DF93CF9300D0CDB7DEB71A82BB
:100FD0001982EBE2F0E080818823DCF7ECE2F0E0BC
:100FE0008081282F30E089819A81822B932B9A83EC
:100FF000898389819A810F900F90CF91DF91089515
:10100000DF93CF93CDB7DEB780E060E040E00E9491
:10101000900E0E948A1280E00E94D7120E94BB129A
:10102000CF91DF910895DF93CF93CDB7DEB72C97A3
:101030000FB6F894DEBF0FBECDBF9C878B870E9492
:101040003A149A87898780E090E4ACE1B0E48D831C
:101050009E83AF83B88789859A85CC01A0E0B0E0F4
:10106000BC01CD010E94A104DC01CB01BC01CD017A
:101070002D813E814F8158850E941702DC01CB01F2
:1010800089839A83AB83BC8369817A818B819C81BC
:1010900020E030E040E251E40E941103DC01CB018A
:1010A000BC01CD010E941F17DC01CB01EB85FC8543
:1010B00080839183A283B3832C960FB6F894DEBF0E
:1010C0000FBECDBFCF91DF910895DF93CF930F92E5
:1010D000CDB7DEB7898382E062E041E00E94950FE0
:1010E00089810E9489080F90CF91DF910895DF9345
:1010F000CF930F92CDB7DEB7898382E062E040E004
:101100000E94950F89810E9489080F90CF91DF91ED
:101110000895DF93CF93CDB7DEB76D970FB6F894F0
:10112000DEBF0FBECDBF8D8F82E061E040E00E9448
:10113000950F83E06D8D0E94D61082E060E041E063
:101140000E94950F80E090E0A0E8BFE3898F9A8F1E
:10115000AB8FBC8F698D7A8D8B8D9C8D20E030E0BC
:101160004AEF54E40E941702DC01CB018D8B9E8B69
:10117000AF8BB88F6D897E898F89988D20E030E0A4
:1011800040E85FE30E941D0488232CF481E090E096
:101190009C8B8B8B3FC06D897E898F89988D20E0D9
:1011A0003FEF4FE757E40E94BD0318164CF5698DD9
:1011B0007A8D8B8D9C8D20E030E040E251E40E94DE
:1011C0001702DC01CB01BC01CD010E944100DC0112
:1011D000CB019C8B8B8B0FC088EC90E09A8B898B1A
:1011E00089899A890197F1F79A8B898B8B899C89D8
:1011F00001979C8B8B8B8B899C89009769F714C016
:101200006D897E898F89988D0E944100DC01CB0118
:101210009C8B8B8B8B899C89988B8F878F859889EA
:101220000197F1F7988B8F8782E060E040E00E94A1
:10123000950F80E090E0A8E4B2E48B879C87AD87AF
:10124000BE876B857C858D859E8520E030E04AEFEA
:1012500054E40E941702DC01CB018F839887A98791
:10126000BA876F81788589859A8520E030E040E8EB
:101270005FE30E941D0488232CF481E090E09E83AC
:101280008D833FC06F81788589859A8520E03FEF07
:101290004FE757E40E94BD0318164CF56B857C851B
:1012A0008D859E8520E030E040E251E40E941702E7
:1012B000DC01CB01BC01CD010E944100DC01CB016E
:1012C0009E838D830FC088EC90E09C838B838B8101
:1012D0009C810197F1F79C838B838D819E8101977F
:1012E0009E838D838D819E81009769F714C06F81E5
:1012F000788589859A850E944100DC01CB019E8317
:101300008D838D819E819A83898389819A810197BA
:10131000F1F79A8389836D960FB6F894DEBF0FBEFE
:10132000CDBFCF91DF910895DF93CF93CDB7DEB7D7
:1013300081E090E060E070E00E94600C82E062E09A
:1013400041E00E94950F82E061E041E00E94950F2C
:10135000CF91DF910895DF93CF9300D000D0CDB728
:10136000DEB79C838B831A8219820FC029813A8150
:101370008B819C81FC01E20FF31F80810E94650834
:1013800089819A8101969A83898329813A818B8107
:101390009C81FC01E20FF31F8081882339F70F90B5
:1013A0000F900F900F90CF91DF9108950F931F939F
:1013B000DF93CF93CDB7DEB7C654D0400FB6F894C5
:1013C000DEBF0FBECDBF82E060E041E00E94900E24
:1013D00082E060E040E00E94950F82E061E041E041
:1013E0000E94900E82E062E041E00E94900E83E055
:1013F0006FEF0E949510FE01ED5BFF4F80E090E0E3
:10140000A8E4B2E480839183A283B3838E01015C5C
:101410001F4FFE01ED5BFF4F6081718182819381DF
:1014200020E030E04AEF54E40E941702DC01CB01D7
:10143000F80180839183A283B383FE01FF966081CC
:1014400071818281938120E030E040E85FE30E9477
:101450001D0488232CF481E090E09EAF8DAF46C040
:10146000FE01FF96608171818281938120E03FEFD0
:101470004FE757E40E94BD03181664F5FE01ED5BCB
:10148000FF4F608171818281938120E030E040E2F2
:1014900051E40E941702DC01CB01BC01CD010E9486
:1014A0004100DC01CB019EAF8DAF0FC088EC90E016
:1014B0009CAF8BAF8BAD9CAD0197F1F79CAF8BAF21
:1014C0008DAD9EAD01979EAF8DAF8DAD9EAD00975A
:1014D00069F716C0FE01FF96608171818281938158
:1014E0000E944100DC01CB019EAF8DAF8DAD9EAD62
:1014F0009AAF89AF89AD9AAD0197F1F79AAF89AFED
:1015000088E30E94770880E090E0A0E8BFE38DAB1D
:101510009EABAFABB8AF6DA97EA98FA998AD20E007
:1015200030E04AEF54E40E941702DC01CB0189ABA2
:101530009AABABABBCAB69A97AA98BA99CA920E0FB
:1015400030E040E85FE30E941D0488232CF481E032
:1015500090E098AB8FA73FC069A97AA98BA99CA9F5
:1015600020E03FEF4FE757E40E94BD0318164CF50B
:101570006DA97EA98FA998AD20E030E040E251E44A
:101580000E941702DC01CB01BC01CD010E94410089
:10159000DC01CB0198AB8FA70FC088EC90E09EA731
:1015A0008DA78DA59EA50197F1F79EA78DA78FA565
:1015B00098A9019798AB8FA78FA598A9009769F76D
:1015C00014C069A97AA98BA99CA90E944100DC01D9
:1015D000CB0198AB8FA78FA598A99CA78BA78BA5AC
:1015E0009CA50197F1F79CA78BA78EE00E94770836
:1015F00080E090E0A0E8BFE38FA398A7A9A7BAA7CF
:101600006FA178A589A59AA520E030E04AEF54E4BF
:101610000E941702DC01CB018BA39CA3ADA3BEA348
:101620006BA17CA18DA19EA120E030E040E85FE3AA
:101630000E941D0488232CF481E090E09AA389A3E2
:101640003FC06BA17CA18DA19EA120E03FEF4FE7A1
:1016500057E40E94BD0318164CF56FA178A589A523
:101660009AA520E030E040E251E40E941702DC013C
:10167000CB01BC01CD010E944100DC01CB019AA34A
:1016800089A30FC088EC90E098A38F8F8F8D98A1CD
:101690000197F1F798A38F8F89A19AA101979AA337
:1016A00089A389A19AA1009769F714C06BA17CA1B5
:1016B0008DA19EA10E944100DC01CB019AA389A3C8
:1016C00089A19AA19E8F8D8F8D8D9E8D0197F1F7A7
:1016D0009E8F8D8F81E00E94770880E090E0A0E0EF
:1016E000B0E4898F9A8FAB8FBC8F698D7A8D8B8D8B
:1016F0009C8D20E030E04AEF54E40E941702DC01A8
:10170000CB018D8B9E8BAF8BB88F6D897E898F8936
:10171000988D20E030E040E85FE30E941D048823BC
:101720002CF481E090E09C8B8B8B3FC06D897E898F
:101730008F89988D20E03FEF4FE757E40E94BD036B
:1017400018164CF5698D7A8D8B8D9C8D20E030E0DC
:1017500040E251E40E941702DC01CB01BC01CD0143
:101760000E944100DC01CB019C8B8B8B0FC088EC6D
:1017700090E09A8B898B89899A890197F1F79A8BE6
:10178000898B8B899C8901979C8B8B8B8B899C89FE
:10179000009769F714C06D897E898F89988D0E94A2
:1017A0004100DC01CB019C8B8B8B8B899C89988BB6
:1017B0008F878F8598890197F1F7988B8F8783E0C2
:1017C0000E94770880E090E0A0E0B0E48B879C87DF
:1017D000AD87BE876B857C858D859E8520E030E05A
:1017E0004AEF54E40E941702DC01CB018F839887F3
:1017F000A987BA876F81788589859A8520E030E04E
:1018000040E85FE30E941D0488232CF481E090E00F
:101810009E838D833FC06F81788589859A8520E07E
:101820003FEF4FE757E40E94BD0318164CF56B8558
:101830007C858D859E8520E030E040E251E40E9469
:101840001702DC01CB01BC01CD010E944100DC018B
:10185000CB019E838D830FC088EC90E09C838B83AB
:101860008B819C810197F1F79C838B838D819E8175
:1018700001979E838D838D819E81009769F714C0A7
:101880006F81788589859A850E944100DC01CB01B2
:101890009E838D838D819E819A83898389819A819C
:1018A0000197F1F79A838983CA5BDF4F0FB6F894EB
:1018B000DEBF0FBECDBFCF91DF911F910F91089575
:1018C000DF93CF9300D0CDB7DEB789836A83898158
:1018D000882329F48A8180580E94770807C089816B
:1018E000813021F48A8180540E9477080F900F90F4
:1018F000CF91DF910895DF93CF93CDB7DEB72797D0
:101900000FB6F894DEBF0FBECDBF9E838D836F836D
:1019100080E40E9477081C821B820FC02B813C81CF
:101920008D819E81FC01E20FF31F80810E9465087A
:101930008B819C8101969C838B838F81882F90E083
:101940009C01220F331F220F331F220F331F8B8165
:101950009C818217930714F384E00E94770880E04B
:1019600063E00E94600C1A82198208C089810E947B
:10197000650889819A8101969A8389838F81282FAE
:1019800030E089819A818217930784F327960FB6F6
:10199000F894DEBF0FBECDBFCF91DF910895DF93E6
:1019A000CF93CDB7DEB781E00E947708CF91DF916A
:1019B0000895DF93CF93CDB7DEB765970FB6F89450
:1019C000DEBF0FBECDBF9C8B8B8B6D8B1A8A198AA5
:1019D000A2C081E00E9477088A89982F9D5F89893B
:1019E000692F0E94600C9A898D89890F8A8B188AC9
:1019F0001F860BC09F858D89891B81500E946508B9
:101A00008F8598890196988B8F878D89282F30E054
:101A10008F859889821793076CF380E090E8ABE399
:101A2000B5E48B879C87AD87BE876B857C858D856C
:101A30009E8520E030E04AEF54E40E941702DC016A
:101A4000CB018F839887A987BA876F81788589852D
:101A50009A8520E030E040E85FE30E941D0488237F
:101A60002CF481E090E09E838D833FC06F81788568
:101A700089859A8520E03FEF4FE757E40E94BD0338
:101A800018164CF56B857C858D859E8520E030E0B1
:101A900040E251E40E941702DC01CB01BC01CD0100
:101AA0000E944100DC01CB019E838D830FC088EC36
:101AB00090E09C838B838B819C810197F1F79C83C1
:101AC0008B838D819E8101979E838D838D819E81E5
:101AD000009769F714C06F81788589859A850E947F
:101AE0004100DC01CB019E838D838D819E819A8391
:101AF000898389819A810197F1F79A8389838A89F9
:101B0000882F90E00396803191050CF462CF89898B
:101B10008F5F898B1A8A8989823088F365960FB620
:101B2000F894DEBF0FBECDBFCF91DF910895EF9245
:101B3000FF920F931F93DF93CF93CDB7DEB72D970F
:101B40000FB6F894DEBF0FBECDBF6A877B878C8748
:101B50009D878A859B85AC85BD858D839E83AF835C
:101B6000B88719821A821B821C82198639C0898122
:101B70009A81AB81BC812AE030E040E050E0BC01BA
:101B8000CD010E9493167B018C018D819E81AF81D6
:101B9000B8852AE030E040E050E0BC01CD010E9471
:101BA000C616DC01CB018E0D9F1DA01FB11F8983BE
:101BB0009A83AB83BC838D819E81AF81B8852AE0F7
:101BC00030E040E050E0BC01CD010E94C616DA01D1
:101BD000C9018D839E83AF83B88789858F5F89878D
:101BE0008D819E81AF81B8850097A105B10509F06F
:101BF000BECF198626C089819A81AB81BC812AE03B
:101C000030E040E050E0BC01CD010E94C616DC018E
:101C1000CB01805D0E94650889819A81AB81BC817E
:101C20002AE030E040E050E0BC01CD010E94C61641
:101C3000DA01C90189839A83AB83BC8389858F5F6D
:101C4000898789819A81AB81BC810097A105B10503
:101C500091F62D960FB6F894DEBF0FBECDBFCF9193
:101C6000DF911F910F91FF90EF900895DF93CF9335
:101C7000CDB7DEB72C970FB6F894DEBF0FBECDBF41
:101C800069877A878B879C8769857A858B859C8510
:101C90000E944100DC01CB018D839E83AF83B88716
:101CA0006D817E818F8198850E94A1049B01AC018A
:101CB00069857A858B859C850E94B901DC01CB0101
:101CC000BC01CD0120E030E44CE156E40E94170253
:101CD000DC01CB01BC01CD010E944100DC01CB0144
:101CE00089839A83AB83BC838D819E81AF81B885C4
:101CF000BC01CD010E94970D8EE20E94650889818A
:101D00009A81AB81BC81BC01CD010E94970D2C96BC
:101D10000FB6F894DEBF0FBECDBFCF91DF9108950F
:101D2000DF93CF93CDB7DEB728970FB6F894DEBF19
:101D30000FBECDBF8A836B834C8319828C81813027
:101D400009F071C081E089838A81282F30E03887CB
:101D50002F838F8198858130910549F12F813885B6
:101D6000223031052CF48F819885009761F0D4C022
:101D70002F8138852230310571F18F81988583302C
:101D80009105E9F1C9C0AAE3B0E0EAE3F0E080819F
:101D9000482F8B81282F30E081E090E0022E02C096
:101DA000880F991F0A94E2F7842B8C93B5C0A7E3A0
:101DB000B0E0E7E3F0E08081482F8B81282F30E00E
:101DC00081E090E0022E02C0880F991F0A94E2F78A
:101DD000842B8C93A1C0A4E3B0E0E4E3F0E0808125
:101DE000482F8B81282F30E081E090E0022E02C046
:101DF000880F991F0A94E2F7842B8C938DC0A1E37E
:101E0000B0E0E1E3F0E08081482F8B81282F30E0C3
:101E100081E090E0022E02C0880F991F0A94E2F739
:101E2000842B8C9379C08C81882309F075C081E064
:101E300089838A81282F30E03E832D838D819E8186
:101E40008130910559F12D813E81223031052CF4EC
:101E50008D819E81009769F05FC02D813E81223087
:101E6000310589F18D819E818330910509F440C04F
:101E700053C0AAE3B0E0EAE3F0E08081482F8B8111
:101E8000282F30E081E090E0022E02C0880F991FD9
:101E90000A94E2F7809584238C933EC0A7E3B0E0D8
:101EA000E7E3F0E08081482F8B81282F30E081E04C
:101EB00090E0022E02C0880F991F0A94E2F78095E5
:101EC00084238C9329C0A4E3B0E0E4E3F0E08081B4
:101ED000482F8B81282F30E081E090E0022E02C055
:101EE000880F991F0A94E2F7809584238C9314C07D
:101EF000A1E3B0E0E1E3F0E08081482F8B81282F5F
:101F000030E081E090E0022E02C0880F991F0A9411
:101F1000E2F7809584238C9328960FB6F894DEBF61
:101F20000FBECDBFCF91DF910895DF93CF93CDB793
:101F3000DEB727970FB6F894DEBF0FBECDBF8983FB
:101F40006A834B838B81813009F06FC08981282F90
:101F500030E03F832E838E819F818130910549F14E
:101F60002E813F81223031052CF48E819F81009794
:101F700061F0D2C02E813F812230310571F18E8116
:101F80009F8183309105E9F1C7C0ABE3B0E0EBE39B
:101F9000F0E08081482F8A81282F30E081E090E0B6
:101FA000022E02C0880F991F0A94E2F7842B8C93AB
:101FB000B3C0A8E3B0E0E8E3F0E08081482F8A8175
:101FC000282F30E081E090E0022E02C0880F991F98
:101FD0000A94E2F7842B8C939FC0A5E3B0E0E5E37D
:101FE000F0E08081482F8A81282F30E081E090E066
:101FF000022E02C0880F991F0A94E2F7842B8C935B
:102000008BC0A2E3B0E0E2E3F0E08081482F8A8158
:10201000282F30E081E090E0022E02C0880F991F47
:102020000A94E2F7842B8C9377C08B81882309F084
:1020300073C08981282F30E03D832C838C819D8162
:102040008130910559F12C813D81223031052CF4EC
:102050008C819D81009769F05FC02C813D81223089
:10206000310589F18C819D818330910509F440C04F
:1020700053C0ABE3B0E0EBE3F0E08081482F8A810E
:10208000282F30E081E090E0022E02C0880F991FD7
:102090000A94E2F7809584238C933EC0A8E3B0E0D5
:1020A000E8E3F0E08081482F8A81282F30E081E04A
:1020B00090E0022E02C0880F991F0A94E2F78095E3
:1020C00084238C9329C0A5E3B0E0E5E3F0E08081B0
:1020D000482F8A81282F30E081E090E0022E02C054
:1020E000880F991F0A94E2F7809584238C9314C07B
:1020F000A2E3B0E0E2E3F0E08081482F8A81282F5C
:1021000030E081E090E0022E02C0880F991F0A940F
:10211000E2F7809584238C9327960FB6F894DEBF60
:102120000FBECDBFCF91DF910895DF93CF9300D045
:1021300000D0CDB7DEB789836A838981282F30E04C
:102140003C832B838B819C8181309105D1F02B8145
:102150003C81223031052CF48B819C81009761F009
:102160001EC02B813C812230310581F08B819C8106
:102170008330910581F013C0EAE3F0E08A81808327
:102180000EC0E7E3F0E08A81808309C0E4E3F0E079
:102190008A81808304C0E1E3F0E08A8180830F902C
:1021A0000F900F900F90CF91DF910895DF93CF9311
:1021B00000D000D0CDB7DEB789836A838981282F0C
:1021C00030E03C832B838B819C8181309105D1F061
:1021D0002B813C81223031052CF48B819C8100972E
:1021E00061F01EC02B813C812230310581F08B8152
:1021F0009C818330910581F013C0EBE3F0E08A818C
:1022000080830EC0E8E3F0E08A81808309C0E5E3C3
:10221000F0E08A81808304C0E2E3F0E08A81808379
:102220000F900F900F900F90CF91DF910895DF9353
:10223000CF9300D000D00F92CDB7DEB78A836B83E7
:102240008A81282F30E03D832C834C815D81413091
:10225000510541F18C819D818230910534F42C81AE
:102260003D812115310561F052C04C815D814230C4
:10227000510551F18C819D8183309105B9F147C0A1
:10228000E9E3F0E08081282F30E08B81882F90E017
:10229000A90102C0559547958A95E2F7CA01817058
:1022A000898335C0E6E3F0E08081282F30E08B8120
:1022B000882F90E0A90102C0559547958A95E2F7CD
:1022C000CA018170898323C0E3E3F0E08081282F75
:1022D00030E08B81882F90E0A90102C05595479589
:1022E0008A95E2F7CA018170898311C0E0E3F0E0CA
:1022F0008081282F30E08B81882F90E0A90102C0D7
:10230000559547958A95E2F7CA018170898389813D
:102310000F900F900F900F900F90CF91DF91089535
:10232000DF93CF9300D000D0CDB7DEB789836A8327
:102330008981282F30E03C832B838B819C818130E5
:10234000910549F12B813C81223031052CF48B81A0
:102350009C81009761F05AC02B813C81223031056D
:1023600071F18B819C8183309105E9F14FC0AAE323
:10237000B0E0EAE3F0E08081482F8A81282F30E046
:1023800081E090E0022E02C0880F991F0A94E2F7C4
:1023900084278C933BC0A7E3B0E0E7E3F0E08081C3
:1023A000482F8A81282F30E081E090E0022E02C081
:1023B000880F991F0A94E2F784278C9327C0A4E31F
:1023C000B0E0E4E3F0E08081482F8A81282F30E0FC
:1023D00081E090E0022E02C0880F991F0A94E2F774
:1023E00084278C9313C0A1E3B0E0E1E3F0E08081A7
:1023F000482F8A81282F30E081E090E0022E02C031
:10240000880F991F0A94E2F784278C930F900F90FE
:102410000F900F90CF91DF910895DF93CF9300D06D
:1024200000D0CDB7DEB789836A838981282F30E059
:102430003C832B838B819C818130910549F12B81D9
:102440003C81223031052CF48B819C81009761F016
:102450005AC02B813C812230310571F18B819C81E6
:1024600083309105E9F14FC0ABE3B0E0EBE3F0E07E
:102470008081482F8A81282F30E081E090E0022E71
:1024800002C0880F991F0A94E2F784278C933BC0FF
:10249000A8E3B0E0E8E3F0E08081482F8A81282FAC
:1024A00030E081E090E0022E02C0880F991F0A946C
:1024B000E2F784278C9327C0A5E3B0E0E5E3F0E0E2
:1024C0008081482F8A81282F30E081E090E0022E21
:1024D00002C0880F991F0A94E2F784278C9313C0D7
:1024E000A2E3B0E0E2E3F0E08081482F8A81282F68
:1024F00030E081E090E0022E02C0880F991F0A941C
:10250000E2F784278C930F900F900F900F90CF914C
:10251000DF910895DF93CF93CDB7DEB7A6E2B0E0A9
:10252000E6E2F0E080818E7F8C93A6E2B0E0E6E206
:10253000F0E080818D7F8C93A6E2B0E0E6E2F0E0EF
:10254000808184608C93A7E2B0E0E7E2F0E08081D4
:1025500080688C93A7E2B0E0E7E2F0E080818064DD
:102560008C93A7E2B0E0E7E2F0E080818F7D8C936E
:10257000CF91DF910895DF93CF93CDB7DEB7A6E279
:10258000B0E0E6E2F0E0808180688C93CF91DF914B
:102590000895DF93CF93CDB7DEB7A6E2B0E0E6E2D1
:1025A000F0E080818F778C93CF91DF910895DF9356
:1025B000CF930F92CDB7DEB78983A7E2B0E0E7E211
:1025C000F0E08081807E8C93A7E2B0E0E7E2F0E06B
:1025D00090818981892B8C930F90CF91DF91089501
:1025E000DF93CF93CDB7DEB7A6E2B0E0E6E2F0E04E
:1025F000808180648C93CF91DF910895DF93CF9396
:1026000000D00F92CDB7DEB789838981282F30E0C3
:102610003B832A838A819B81009731F02A813B8109
:102620002130310549F00FC0A6E2B0E0E6E2F0E06B
:1026300080818F7D8C9307C0A6E2B0E0E6E2F0E0F7
:10264000808180628C930F900F900F90CF91DF91DB
:102650000895DF93CF9300D00F92CDB7DEB7898373
:102660008981282F30E03B832A838A819B818330B4
:10267000910509F470C02A813B812430310584F42E
:102680008A819B8181309105D1F12A813B81223061
:1026900031050CF04AC08A819B810097D1F0C8C0F7
:1026A0002A813B812530310509F481C08A819B81D3
:1026B000853091050CF465C02A813B8126303105B7
:1026C00009F48BC08A819B818730910509F49BC0F6
:1026D000AFC0A0E5B0E0E0E5F0E080818F7D8C93B5
:1026E000A0E5B0E0E0E5F0E080818F7B8C93A0E591
:1026F000B0E0E0E5F0E080818F778C9399C0A0E5B1
:10270000B0E0E0E5F0E0808180628C93A0E5B0E08D
:10271000E0E5F0E080818F7B8C93A0E5B0E0E0E520
:10272000F0E080818F778C9383C0A0E5B0E0E0E596
:10273000F0E080818F7D8C93A0E5B0E0E0E5F0E0F3
:10274000808180648C93A0E5B0E0E0E5F0E08081DA
:102750008F778C936DC0A0E5B0E0E0E5F0E080817C
:1027600080628C93A0E5B0E0E0E5F0E080818064D9
:102770008C93A0E5B0E0E0E5F0E080818F778C936A
:1027800057C0A0E5B0E0E0E5F0E080818F7D8C935C
:10279000A0E5B0E0E0E5F0E080818F7B8C93A0E5E0
:1027A000B0E0E0E5F0E0808180688C9341C0A0E576
:1027B000B0E0E0E5F0E0808180628C93A0E5B0E0DD
:1027C000E0E5F0E080818F7B8C93A0E5B0E0E0E570
:1027D000F0E0808180688C932BC0A0E5B0E0E0E55C
:1027E000F0E080818F7D8C93A0E5B0E0E0E5F0E043
:1027F000808180648C93A0E5B0E0E0E5F0E080812A
:1028000080688C9315C0A0E5B0E0E0E5F0E0808141
:1028100080628C93A0E5B0E0E0E5F0E08081806428
:102820008C93A0E5B0E0E0E5F0E0808180688C93D7
:102830000F900F900F90CF91DF910895DF93CF937A
:10284000CDB7DEB7A6E2B0E0E6E2F0E080818860D6
:102850008C93CF91DF910895DF93CF93CDB7DEB7FF
:10286000A6E2B0E0E6E2F0E08081877F8C93CF9132
:10287000DF910895DF93CF9300D0CDB7DEB71A82F2
:1028800019820E94F012E6E2F0E0808182958F705A
:102890008823C9F3A6E2B0E0E6E2F0E08081886038
:1028A0008C93E4E2F0E0808191819A83898389812D
:1028B0009A810F900F90CF91DF910895DF93CF937E
:1028C000CDB7DEB762970FB6F894DEBF0FBECDBFAF
:1028D0000E94D6090E9400080E94CF0CCE010F96DC
:1028E0000E9413088F859889A989BA89BC01CD01F6
:1028F0000E94360E83E40E94650880E090E0AAE71B
:10290000B4E48B879C87AD87BE876B857C858D857E
:102910009E8520E030E04AEF54E40E941702DC017B
:10292000CB018F839887A987BA876F81788589853E
:102930009A8520E030E040E85FE30E941D04882390
:102940002CF481E090E09E838D833FC06F81788579
:1029500089859A8520E03FEF4FE757E40E94BD0349
:1029600018164CF56B857C858D859E8520E030E0C2
:1029700040E251E40E941702DC01CB01BC01CD0111
:102980000E944100DC01CB019E838D830FC088EC47
:1029900090E09C838B838B819C810197F1F79C83D2
:1029A0008B838D819E8101979E838D838D819E81F6
:1029B000009769F791CF6F81788589859A850E9404
:1029C0004100DC01CB019E838D838D819E819A83A2
:1029D000898389819A810197F1F79A8389837CCFD2
:1029E000DF93CF93CDB7DEB727970FB6F894DEBF4E
:1029F0000FBECDBF9F838E831D821C828E819F81DF
:102A00009B838A8380E3898322C08C819D819C0182
:102A1000220F331FC901880F991F880F991FF901D1
:102A2000E80FF91F8A819B812AE030E0B9010E94FA
:102A3000B2168E0F9F1F9D838C838A819B812AE013
:102A400030E0B9010E94B216CB019B838A838A8150
:102A50009B810097D1F619C08C819D812AE030E0DE
:102A6000B9010E94B2169C018981882F90E0820FE3
:102A7000931F0E94CA078C819D812AE030E0B90132
:102A80000E94B216CB019D838C838C819D8100971F
:102A900019F727960FB6F894DEBF0FBECDBFCF91C2
:102AA000DF910895DF93CF93CDB7DEB764970FB66C
:102AB000F894DEBF0FBECDBF0E940008E2E3F0E055
:102AC000808162E00E94951080E040E855E260E07D
:102AD00070E00E940F07CE0141960E941308898979
:102AE0009A89AB89BC89BC01CD010E944100DC01FF
:102AF000CB01988B8F878F8598890E94F01483E48F
:102B000090E00E94CA0780E090E0AAE7B4E48B87D7
:102B10009C87AD87BE876B857C858D859E8520E0F3
:102B200030E04AEF54E40E941702DC01CB018F83AE
:102B30009887A987BA876F81788589859A8520E0EB
:102B400030E040E85FE30E941D0488232CF481E01C
:102B500090E09E838D833FC06F81788589859A85BB
:102B600020E03FEF4FE757E40E94BD0318164CF5F5
:102B70006B857C858D859E8520E030E040E251E4C8
:102B80000E941702DC01CB01BC01CD010E94410073
:102B9000DC01CB019E838D830FC088EC90E09C8389
:102BA0008B838B819C810197F1F79C838B838D8133
:102BB0009E8101979E838D838D819E81009769F709
:102BC0008ACF6F81788589859A850E944100DC01D2
:102BD000CB019E838D838D819E819A838983898198
:102BE0009A810197F1F79A83898375CFDF93CF9309
:102BF000CDB7DEB760970FB6F894DEBF0FBECDBF7E
:102C000085E090E0988B8F87E2E3F0E0808162E0DE
:102C10000E94951080E040E855E260E070E00E947C
:102C20000F0785E390E00E94CA0780E090E0AAE7E2
:102C3000B4E48B879C87AD87BE876B857C858D854B
:102C40009E8520E030E04AEF54E40E941702DC0148
:102C5000CB018F839887A987BA876F81788589850B
:102C60009A8520E030E040E85FE30E941D0488235D
:102C70002CF481E090E09E838D833FC06F81788546
:102C800089859A8520E03FEF4FE757E40E94BD0316
:102C900018164CF56B857C858D859E8520E030E08F
:102CA00040E251E40E941702DC01CB01BC01CD01DE
:102CB0000E944100DC01CB019E838D830FC088EC14
:102CC00090E09C838B838B819C810197F1F79C839F
:102CD0008B838D819E8101979E838D838D819E81C3
:102CE000009769F79ECF6F81788589859A850E94C4
:102CF0004100DC01CB019E838D838D819E819A836F
:102D0000898389819A810197F1F79A83898389CF91
:102D1000DF93CF93CDB7DEB70E94521580E090E0ED
:102D2000CF91DF910895629FD001739FF001829F40
:102D3000E00DF11D649FE00DF11D929FF00D839F4A
:102D4000F00D749FF00D659FF00D9927729FB00DE7
:102D5000E11DF91F639FB00DE11DF91FBD01CF01FA
:102D600011240895AA1BBB1B51E107C0AA1FBB1F5A
:102D7000A617B70710F0A61BB70B881F991F5A9507
:102D8000A9F780959095BC01CD010895A1E21A2E76
:102D9000AA1BBB1BFD010DC0AA1FBB1FEE1FFF1FFF
:102DA000A217B307E407F50720F0A21BB30BE40B4F
:102DB000F50B661F771F881F991F1A9469F7609596
:102DC0007095809590959B01AC01BD01CF01089550
:102DD0002F923F924F925F926F927F928F929F922B
:102DE000AF92BF92CF92DF92EF92FF920F931F9319
:102DF000CF93DF93CDB7DEB7CA1BDB0B0FB6F894CA
:102E0000DEBF0FBECDBF09942A88398848885F8409
:102E10006E847D848C849B84AA84B984C884DF807A
:102E2000EE80FD800C811B81AA81B981CE0FD11D5E
:102E30000FB6F894DEBF0FBECDBFED0108953BD0B5
:102E400080F09F3740F491110EF44DC060E070E0C7
:102E500080E89FE3089526F01B16611D711D811DFA
:102E600001C01BC0882371F4772321F09850872B71
:102E7000762F07C0662311F499270DC09051862B39
:102E800070E060E02AF09A95660F771F881FDAF7E6
:102E9000880F9695879597F908959F3F31F0915047
:102EA00020F4879577956795B795880F911D96952E
:102EB000879597F9089525D0A0F0BEE7B91788F453
:102EC000BB279F3860F41616B11D672F782F88270F
:102ED000985FF7CF869577956795B11D939596394D
:102EE000C8F30895E894BB2766277727CB0197F9A5
:102EF000089557FD9058440F551F59F05F3F71F0EA
:102F00004795880F97FB991F61F09F3F79F0879550
:102F10000895121613061406551FF2CF4695F1DFD9
:102F200008C0161617061806991FF1CF8695710569
:0A2F3000610508940895F894FFCF9E
:102F3A000000000000000000000102020303030376
:102F4A00040404040404040405050505050505052F
:102F5A00050505050505050506060606060606060F
:102F6A0006060606060606060606060606060606F7
:102F7A0006060606060606060707070707070707DF
:102F8A0007070707070707070707070707070707C7
:102F9A0007070707070707070707070707070707B7
:102FAA0007070707070707070707070707070707A7
:102FBA00070707070707070708080808080808088F
:102FCA000808080808080808080808080808080877
:102FDA000808080808080808080808080808080867
:102FEA000808080808080808080808080808080857
:102FFA000808080808080808080808080808080847
:10300A000808080808080808080808080808080836
:10301A000808080808080808080808080808080826
:10302A000808080808080808080808080808080816
:08303A0008080808080808084E
:00000001FF
